:020000040800F2
:1000000040080020A90100085B2D0008F329000822
:10001000592D0008D1130008C53200080000000067
:100020000000000000000000000000005F2D00083C
:10003000F5140008000000005D2D0008852D000863
:10004000C3010008C3010008C3010008C301000880
:10005000C3010008C3010008C3010008C301000870
:10006000C3010008C3010008C3010008C301000860
:10007000C3010008C3010008C3010008C301000850
:10008000C3010008C3010008C3010008C301000840
:10009000C3010008C3010008C3010008C301000830
:1000A000C3010008C3010008C3010008C301000820
:1000B000C3010008C3010008C3010008C301000810
:1000C000C3010008C3010008C3010008C301000800
:1000D000C3010008AD320008B9320008C3010008AE
:1000E000C3010008C3010008C301000800F002F8C2
:1000F00000F04AF80AA090E8000C82448344AAF178
:100100000107DA4501D100F03FF8AFF2090EBAE875
:100110000F0013F0010F18BFFB1A43F0010318473B
:100120007838000098380000103A24BF78C878C1A9
:10013000FAD8520724BF30C830C144BF04680C60ED
:10014000704700000023002400250026103A28BF35
:1001500078C1FBD8520728BF30C148BF0B60704739
:10016000662903F0B883752900F05280002070479B
:100170001FB500F0DFFB04000020002103F06CF944
:10018000E0601FBD10B510BD00F0D4FC1146FFF7B4
:10019000EFFF03F0C3F800F0F2FC03B4FFF7F2FF47
:1001A00003BC00F035FD00000948804709480047BE
:1001B000FEE7FEE7FEE7FEE7FEE7FEE7FEE7FEE717
:1001C000FEE7FEE704480549054A064B7047000074
:1001D000E72D0008ED000008400200204008002044
:1001E00040040020400400200FB41CB5074B06AAB1
:1001F0007B4469460090059800F083FB0020694627
:1002000000F092FB1CBC5DF814FB000035070000F9
:100210002DE9F0410646002410687529314616A5DF
:1002200010D0AFF30080002802DA404213A507E0A7
:1002300031688A0701D512A502E0490704D511A546
:10024000012401E0AFF3008000210A2206F1240717
:1002500009E0B0FBF2FCB0FBF2F302FB1C00303013
:1002600078541846491C0028F3D123462A463046C4
:10027000BDE8F04100F0D8B8000000002D000000FB
:100280002B000000200000002DE9F0474FF0000A8D
:1002900089460446C0F820A02046E1688847002827
:1002A00076D0252806D0D4E901219047206A401C49
:1002B0002062F1E7E168204600258847C4F81CA0C9
:1002C00006460027C4F818A02A2E09D0304603F0AD
:1002D0001EF838B304EB8708303EC8F8186019E000
:1002E00059F8041B204604EB87029161E1688847B6
:1002F000012F064618D1E069002820DA25F02005F4
:100300001DE0D8F8180000EB800006EB4000303804
:10031000C8F818002046E1688847064602F0F7FF53
:100320000028EED1012F0AD02E2E08D12046E168F8
:1003300088477F1C0646022F45F02005C4DBA069D4
:10034000002803DA404245F00105A061E80701D02A
:1003500025F01005B6B1A6F14100192802D82036C3
:1003600045F400654A463146204625604D46FFF774
:10037000F7FE58B1012806D0ED1D25F0070000F169
:10038000080989E704E005F1040985E730468AE7B2
:10039000206ABDE8F08710B5431C02E010F8011B8D
:1003A00071B18107FAD14FF0013202C88C1A8C4327
:1003B00014EAC211F9D0C01A0A0603D0C01E10BD3B
:1003C000C01A10BD0A0401D0801E10BD0902FCD065
:1003D000401E10BD4FF0000200B5134694469646ED
:1003E000203922BFA0E80C50A0E80C50B1F1200148
:1003F000BFF4F7AF090728BFA0E80C5048BF0CC0F6
:100400005DF804EB890028BF40F8042B08BF704753
:1004100048BF20F8022B11F0804F18BF00F8012BC5
:1004200070477047704770472DE9F0470D46994671
:100430009246044600F124080168880604D5E06964
:1004400021F01001216000E00120A84201DD471BDE
:1004500000E00027A1697A1902EB0900081AA061DF
:100460002078C00602D42046AFF30080002608E0C2
:10047000D4E901211AF806009047206A401C761C36
:1004800020624E45F4DB2078C0060AD52046AFF343
:10049000008006E0D4E9012130209047206A401C0A
:1004A0002062381EA7F10107F4DC07E0D4E901213E
:1004B00018F805009047206A401C2062281EA5F10C
:1004C0000105F3DC2046AFF300802078000602D55A
:1004D0000220BDE8F0870120FBE770472DE9FF4FC0
:1004E0000C461E464FF0FF378BB0D2E90001DDF815
:1004F00060800A908A46C1F30A5505B93D4600213D
:1005000008464FF00000BAF1000F00F4400005DA91
:1005100000EB80004FF4400101EA50004FEA90598F
:10052000B9F1010F00DDB9460A9850EA4A000ED031
:1005300044F61050A5F2FF3545432F14B8F1000FD3
:100540001ED07542291E1EDDC9F100021CE0B8F163
:10055000010F4FF0000001D0302103E0F24305E02D
:100560002154401CB042FBDB3046002200212154C4
:100570000B99C1F80880C1E900200FB0BDE8F08FE9
:10058000BD1B6D1CDEE74A4600DA694206A800F092
:100590005BFA06AB93E8070003AB83E8070050461D
:1005A0000A9900F03CFB8DE80700A0F500501F38C9
:1005B00000900398002D0ADD42F21F014A460844CC
:1005C000002303A90390684600F0A5FD09E0A0F50B
:1005D00000504A461F38002303A90390684600F0E4
:1005E000AFFD8DE807000004000C03D04FF0FF3092
:1005F000410800E01046B8F1000F03D0002200923D
:1006000015461EE0751E05D400F098F9303262558B
:100610006D1EF9D5B3460122084302D000227F1C8B
:1006200004E02078302801D100227F1E002A09979B
:1006300084D01DE0112D07DA00F080F930326255C8
:100640006D1C50EA0102F5D1084302D00098C8B1F0
:100650000EE00021681E05E0235C625C63542254B6
:10066000401E491C8142F7DBAB46A81B401E099087
:10067000002004F80B000B98099AC0F80880C0E924
:10068000002B7AE711264FF0000857E72DE9F04FCD
:1006900088460446D21D22F0070191B0D1E900013D
:1006A000CDE90A0102F00FFE02460B98C00F01D0FF
:1006B0002D2007E02068810701D52B2002E02021B2
:1006C00001EAC000032A099001D0072A05DB03468E
:1006D0004146204600F078F90BE12078800601D5EC
:1006E000E06900E00620B8F1650F814606D0B8F158
:1006F000660F18D0B8F1670F70D131E00020B9F162
:10070000110F009001DB112301E009F101030AAA96
:1007100001A90CA8FFF7E2FEDDE90C70002609F143
:100720000105834647E001204B4600904FF000470B
:100730000AAA01A90CA8FFF7D1FEDDE90DB00C99BA
:100740005D46002610B909F101000D18B9EB05004E
:1007500003D4C0F1FF3609F10105A5EB09002BE038
:10076000B9F1010F01DA4FF001090020B9F1110FC1
:100770000090484601DD112300E003460AAA01A9C2
:100780000CA8FFF7ABFEDDE90C704D460026834652
:10079000207800070AD4AB4500DA5D4601A8012D98
:1007A00004DD411911F8011C302907D04F4502DA48
:1007B00017F1040F04DA012082460FE06D1EEEE708
:1007C000002F02DCED1B3E4403E0781CA84200DD54
:1007D0007D1CB81B00F1010A4FF00047207800078C
:1007E00003D4AA4501DB4FF0FF3A0021B7F1004FD7
:1007F0000DF143088DF8431024D002202B23002F45
:1008000001DA7F422D230A21021EA0F1010000DC43
:100810005FB197FBF1FC97FBF1F201FB1C7C1746E3
:100820000CF1300C08F801CDEEE7A8F101000370DF
:100830002188090501D5452100E06521A0F10108C5
:1008400000F8011C09980FA9A1EB0807FF1D00B1D2
:100850000120411901EBEA70A1693844081A401ED1
:10086000A0612078C00602D42046AFF3008009982A
:1008700028B1D4E901219047206A401C20622078E9
:10088000C00622D52046AFF300801EE0002E04DB18
:10089000B34502DD01A8805D00E03020D4E90121EC
:1008A0009047206A401C2062761CAAF101005FEA92
:1008B000000A0AD100F03EF8C0680168405CD4E943
:1008C00001219047206A401C2062281EA5F10105E5
:1008D000DCDC07E0D4E9012118F8010B9047206A1D
:1008E000401C2062381EA7F10107F3DC2046AFF35D
:1008F0000080032011B041E601694A1C02610878BA
:10090000704700B58FB0CDE901310021059105494F
:100910007944CDE9031011466846FFF7B5FC0FB0E6
:1009200000BD0000E5FFFFFF0A6802F8010B0A6046
:100930007047000000487047FC01002030B5B0F15E
:100940000A024FEA900E71F100034EEA817EB0EB8D
:100950000E0061EB91014FEA101E4EEA017E10EB92
:100960000E0041EB11114FEA102E4EEA016E10EB12
:100970000E0041EB11214FEA104E4EEA014E10EBF2
:100980000E0041EB1141401841F100014FEAD00047
:1009900040EA41704FEAD10110EB80054FEA810433
:1009A00044EA907444EB01046D1944EB0404521BB7
:1009B000A3414FF0000348BF0A3200D530BD401CB0
:1009C00041F1000130BD00002DE9F0411F46044611
:1009D00003260168072A01F4006004DB08B116A5AC
:1009E00005E016A503E008B115A500E015A521F066
:1009F00010002060A069C01EA0610FB1401EA06160
:100A00002046AFF300804FB1D4E90121384690472A
:100A1000206A401C2062C01C206206E0206AFAE7BF
:100A2000D4E9012115F8010B9047761EF8D2204633
:100A3000AFF30080BDE8F0814E414E006E616E0064
:100A4000494E4600696E66002DE9F047814616461C
:100A50008AB0354878440DC88DE80D003248784496
:100A6000801C03AC0DC884E80D0041F69B3008449F
:100A7000372190FBF1F290FBF1F5A5F1800501FB28
:100A800012041B3C02D56442012000E00020DFF884
:100A900098A080460027FA44AAF1BE0A0EE0E007BB
:100AA0000AD03246684607EB470101230AEB810171
:100AB00000F046FB8DE8070064107F1C002CEED18F
:100AC000194F7F44AE3F19E0E80715D007EB04103B
:100AD0000DF1180A90E80E008AE80E00C068F04296
:100AE00001D1981908903246012306A903A800F005
:100AF00027FB03AB83E807006D10641C002DE3D1D6
:100B00004FF0010332466946B8F1000F03A802D046
:100B100000F001FB01E000F013FBC9E90001C9F896
:100B200008200AB0BDE8F087282F00000048704771
:100B3000DC0100207546FFF7F9FFAE460500694667
:100B4000534620F00700854618B020B5FFF73AFB62
:100B5000BDE820404FF000064FF000074FF00008BE
:100B60004FF0000B21F00701AC46ACE8C009ACE83F
:100B7000C009ACE8C009ACE8C0098D46704710B5A3
:100B80000446AFF300802046BDE81040FFF705BBE8
:100B90004FF0013C50F8042B51F8043B9A4221D10C
:100BA000A2EB0C03934313EACC1317D150F8042B98
:100BB00051F8043B9A4215D1A2EB0C03934313EA7C
:100BC000CC130BD150F8042B51F8043B9A4209D1B5
:100BD000A2EB0C03934313EACC13DBD04FF00000DD
:100BE000704700BFD01A01BAB1FA81F101F01801C3
:100BF00022FA01F0CB40C1F12001DBB2C0B2C01A31
:100C00002CFA01F3D11A914311EAC311E6D17047CE
:100C100001491820ABBEFEE72600020070475FEADC
:100C2000400C08BF91F0000F4FEA8C234FEAC1221D
:100C300043EA51514FEA1C5018BF00F5F0404FEA0B
:100C4000300018BF41F000415FEA6C5C00F0298081
:100C5000BCF1FF3F08BF40F080407047130C06BF57
:100C600012044FF0100C4FF0000C130E04BF1202D0
:100C70000CF1080C130F04BF12010CF1040C930FBC
:100C800004BF92000CF1020CD30F04BF52000CF110
:100C9000010C11464FF00002A0F11F00A0EB0C0068
:100CA000704711F0004F08BF704731F000413FF42A
:100CB000D5AF0B0C06BF09044FF0100C4FF0000C21
:100CC0000B0E04BF09020CF1080C0B0F04BF090145
:100CD0000CF1040C8B0F04BF89000CF1020CCB0F3C
:100CE00004BF49000CF1010CCCF12003A0EB0C0077
:100CF00022FA03F302FA0CF241EA030100F10100C7
:100D0000704720F07F4C80EA030023F07F47ACEB74
:100D1000070303F57C5300F0004003F1FF032DE9C6
:100D200080494FEA154B09B44FEA144325EA0B4EAC
:100D300024EA03480FF2042606EB132749083E78FD
:100D40005FEA320203FB0667C7F5000707FB06F6FA
:100D50004FEA54374FEAD64606F1020607FB066C07
:100D6000CCF1005C4FEA1C472CEA074C07FB06F469
:100D70000CFB06F504EB15464FEA961634BF00202F
:100D80004FF000404FEAD13706FB07FC4FEA1C4CFE
:100D90000CFB0BF7D21B03FB0CF761EB07010CFB01
:100DA0000EF7B0EB074072EB17420CFB08F734BFAD
:100DB000A2EB0742B2EB074261EB17414FEA0C444A
:100DC0004FEA910706FB07FC4FEA1C4C0CFB0BF7A4
:100DD000B0EBC74072EB573203FB0CF734BFA2EB0A
:100DE000C742B2EBC74261EB57310CFB0EF7B0EBD9
:100DF000C70072EB57720CFB08F734BFA2EBC702B7
:100E0000B2EBC70261EB5771039F4FEA816141EA80
:100E1000921104EBCC044FEAD1374FEA826206FB11
:100E200007FC42EA90124FEA80604FEA1C4C0CFB30
:100E30000BF7D21B03FB0CF761EB07010CFB0EF762
:100E4000B0EB074072EB17420CFB08F734BFA2EB84
:100E50000742B2EB074261EB17414FEA8C554FEA6C
:100E6000910704EB9C2406FB07FC4FEA1C4C0CFB8F
:100E70000BF7B0EBC74072EB573203FB0CF734BFF4
:100E8000A2EBC742B2EBC74261EB57310CFB0EF746
:100E9000B0EBC70072EB57720CFB08F734BFA2EB44
:100EA000C702B2EBC70261EB577115EB4C254FEA55
:100EB000816141EA92114FEA82624FEAD13742EAF8
:100EC000901206FB07FC44F100044FEA80604FEAF1
:100ED0001C4C0CFB0BF7D21B03FB0CF761EB07015F
:100EE0000CFB0EF7B0EB074072EB17420CFB08F758
:100EF00034BFA2EB0742B2EB074261EB174115EB9F
:100F00001C154FEA813141EA92414FEA823242EAAE
:100F100090424FEA80304FEA0C7644F1000448EAF0
:100F200003434EEA0B484FF0000EB2EB080C71EB96
:100F3000030724BF624639464EEB0E0E4FF0000BFE
:100F40000018524149414BEB0B0BB2EB080C71EB13
:100F500003077BF1000B24BF624639464EEB0E0EB1
:100F60004FF0000B0018524149414BEB0B0BB2EB19
:100F7000080C71EB03077BF1000B24BF6246394676
:100F80004EEB0E0E51EA020718BF46F0010616EBB3
:100F90000E7655F1000254F1000103D5BDE8890138
:100FA000BDE80088BDE88901BDE80048B619524196
:100FB00041EB0101A3F10103704780807F7E7D7CBE
:100FC0007B7A7978777676757473727171706F6EDB
:100FD0006E6D6C6C6B6A6A69686867666665646486
:100FE000636362616160605F5F5E5E5D5D5C5C5B10
:100FF0005B5A5A595958585757565655555554547F
:10100000535352525251515050504F4F4F4E4E4DDC
:101010004D4D4C4C4C4B4B4B4A4A4A494949484828
:101020004847474747464646454545444444444368
:1010300043434342424242414141002B9C4630D40B
:1010400077002BD01CB54FEA370703B44FF01000E0
:101050004FF01001BAF1000F06D0BCF1000FDCBF59
:1010600040F0080040F008014FF000000FBCBDE860
:1010700010400BF1010BBBF1010F08BF5FEA17072E
:1010800022BF12F1010211F101014FF0004143F1C1
:10109000000300F0004043EA00007047F9D357080E
:1010A000D0E746EA064613F1400F4FEA16461FDD29
:1010B00013F1200FDFBF16430A46002120335B42A5
:1010C000BED0C3F1200746EA064602FA07F74FEA08
:1010D000164646EA0706C3F1200722FA03F201FA90
:1010E00007F721FA03F14FF0000342EA0702A7E7EE
:1010F00046EA020646EA06464FEA164646EA010670
:10110000BCBF46EA0646360C4FF000034FF0000223
:101110004FF0000194E72DE9804C9A46934670B455
:1011200091E8380007C831EA400C48BF34EA430C64
:1011300003D5FFF7E6FDFFF780FFF0BCBDE8008CAC
:101140002DE9804C9A46934670B491E8380007C860
:1011500010F0804F08BF13F0804F03D100F005F866
:10116000FFF76BFFF0BCBDE8008C20F07F4780EA02
:10117000030023F07F4C07EB0C03A3F57C5300F036
:101180000040A3F1FE0392F0000F00F0B38095F051
:10119000000F00F077802DE901494FEA11404FEA36
:1011A000144621EA004800FB06FC24EA064708FB37
:1011B00006F607FB08F800FB07F718EB06484CEBB0
:1011C000164C4FEA124B18EB07484FEA15464CEB0A
:1011D000174022EA0B4E0BFB06FC25EA06470EFBE6
:1011E00006F607FB0EFE0BFB07F71EEB064E4CEB5D
:1011F000164C4FF000061EEB074E4CEB174B18EB4E
:101200000B0840F1000018EB0E0B58EB000840F102
:1012100000008F1A4FF000013CBFC943661B14BF8A
:10122000B5EB040C00213CBFC943F61B4FEA174441
:101230004EEA8E0E27EA04454FEA1C4704FB07627C
:101240002CEA074C05FB07F70CFB05F604FB0CFC2E
:1012500016EB074642EB174216EB0C4642EB1C42DC
:101260001BEB060658EB0202414146EA9E0601D5F9
:10127000BDE80189B619524141EB0101A3F1010317
:10128000BDE801894FEA14454FEA114724EA0546B3
:1012900021EA074C05FB07F406FB07F70CFB06F1F8
:1012A00005FB0CFC11EB074144EB17444FEA1247D6
:1012B00011EB0C4144EB1C4422EA074C05FB07F2FE
:1012C00006FB07F70CFB06F605FB0CFC16EB0746C6
:1012D00042EB174216EB0C4642EB1C456A1854F1E0
:1012E000000148BF7047B619524141EB0101A3F11B
:1012F0000103704795F0000F37D04FEA11424FEAD3
:10130000144721EA024624EA074C02FB07F106FBD8
:1013100007F70CFB06F402FB0CFC14EB074441EB53
:1013200017414FEA154714EB0C4441EB1C4125EAE9
:10133000074C02FB07F506FB07F70CFB06F602FB62
:101340000CFC16EB074645EB174516EB0C4645EB38
:101350001C42121951F1000148BF7047B6195241A1
:1013600041EB0101A3F1010370474FEA14454FEA35
:10137000114724EA054621EA074C05FB07F106FB65
:1013800007F70CFB06F24FF0000605FB0CFC12EB16
:10139000074241EB174112EB0C4251EB1C4148BF95
:1013A0007047921841EB0101A3F10103704700005F
:1013B00001280AD1012906D05FF000024FF48061B4
:1013C000024800F026BA0122F8E77047000C0140FD
:1013D000FEE700002DE9F04786B08046102002901D
:1013E00011200025CDE903050220404E89460590D5
:1013F00002A9304600F018F900221021304600F012
:1014000008FA142000F0FEF802A93046039500F017
:101410000BF93C2000F070F81021304600F0F4F990
:1014200001283ED01021304600F0EEF90028F9D016
:10143000782000F061F8AA4600246D46002705F8E0
:1014400004A01021304600F0DFF90028F9D0322046
:1014500000F052F8285D102140002855304600F079
:10146000D3F9012805D1285D401C2855282000F01B
:1014700043F87F1CFFB2082FE3D3641CE4B2052CB1
:10148000DCD39DF800009DF801109DF802209DF826
:1014900003400144224411449DF80420914203D0AA
:1014A000022006B0BDE8F087B9F1000F01D089F83D
:1014B0000000B8F1000F16D004F07F0002F038F9F8
:1014C0000B4902F073F805469DF8020002F030F96E
:1014D000294602F009F8C8F80000210603D580F07B
:1014E0000041C8F800100020DBE7000000080140C0
:1014F000000020417047000070B5084C05460020F0
:1015000021684862204600F031FE2068416AA94205
:10151000FCD3BDE87040014800F050BE74000020CC
:1015200072B6FEE710B590F821100022022905D00E
:101530000421816380F82020012010BD01680B6820
:1015400023F00E030B6001680B6823F001030B60AE
:1015500090F84030C46B012101FA03F3636080F816
:10156000211080F82020104610BD000010B590F822
:1015700021100024022903D00421816301243DE0CD
:1015800001680A6822F00E020A6001680A6822F007
:1015900001020A601A4A0168914201D1012121E049
:1015A000174A1432914201D110211BE0144A28320B
:1015B000914201D1891515E0114A3C32914201D185
:1015C00089140FE00E4A5032914202D14FF480311B
:1015D00008E00B4A6432914202D14FF4801101E0DD
:1015E0004FF08071064A083A5160012180F82110BD
:1015F000002180F82010416B01B18847204610BDC2
:101600000800024070B5044600F008F90546601C69
:1016100002D004480078044400F000F9401BA042C6
:10162000FAD370BD040000202DE9F84FDFF8B8911F
:101630000024A9F1040B23460F2709F1040AABF19A
:10164000040EC9E00125A5402A40AA427DD1674E7B
:10165000D1F804C0ACEB0608B44532D014DCBCF1C0
:10166000030F3AD009DCBCF1000F2AD0BCF1010F06
:101670001CD0BCF1020F31D11DE0BCF1110F17D00D
:10168000BCF1120F2AD119E0B8F5881F19D006DC79
:10169000B8F5803F15D0B8F5801F1FD111E0B8F51F
:1016A000001F0ED0B8F5041F18D10AE0CB6815E072
:1016B000CB681B1D12E0CB6808330FE0CB680C33FE
:1016C0000CE08B682BB1012B4FF0080303D0456170
:1016D00004E0042302E0056100E00023FF2A01D8B2
:1016E000064601E000F104064FEA840501D9A5F1A0
:1016F0002005D6F8008007FA05FC28EA0C0803FA52
:1017000005F548EA0508C6F800804D68ED0062D589
:10171000374DAE6946F00106AE61AD6924F00306AF
:1017200005F001050095334D06EB050CDCF808507B
:10173000A607360F07FA06F825EA0805DFF8B8808D
:10174000404503D14FF0000817E044E0DFF8AC80DB
:10175000404502D14FF001080FE0DFF8A48040457A
:1017600002D14FF0020808E0DFF89880404502D12E
:101770004FF0030801E04FF0040808FA06F848EAC1
:101780000508CCF808804D68D9F80060ED024D4698
:1017900001D5164300E096432E604D68DAF80060EC
:1017A000AD02554601D5164300E096432E604D68C4
:1017B000DBF80060AD035D4601D5164300E09643BB
:1017C0002E604D68DEF80060ED03754601D51643C6
:1017D00000E096432E60641C0D682A46E5407FF4C5
:1017E00031AFBDE8F88F000008040140000011107F
:1017F000001002400000014000080140000C0140C0
:1018000000100140001401408068084000D0012011
:1018100070470AB1016170470904FBE7014880681D
:10182000704700000400002070B5040025D094F833
:101830003D00002520B984F83C50204600F0B8F85F
:10184000242084F83D002068016821F00101016036
:101850002068016841F4004101602068016821F4BA
:101860000041016000F00AFA4D4A6168914201D8D6
:101870004C4900E04C49884201D2012070BD4B49DF
:101880002368B0FBF1F15E6826F03F060E435E6010
:101890006368934206D94FF4967359434FF47A73B1
:1018A000B1FBF3F12368491C1E6A26F03F06314361
:1018B00019626168914210D84900401EB0FBF1F2F4
:1018C000521CC2F30B02042A01D2042022E0B0FB16
:1018D000F1F0401CC0F30B001CE0A268F2B301EB76
:1018E000C10303EB0116431EB3FBF6F35B1C43F489
:1018F00080431B0549D092B301EBC10202EB0111F9
:10190000401EB0FBF1F0401CC0F30B0040F48040DF
:1019100040F400402168CA694CF6FF739A431043B3
:10192000C861D4E9071001432068026822F0C002B0
:1019300011430160D4E9030101432068826848F241
:10194000FF339A4311438160D4E9050108432168BC
:10195000CA6822F0FF021043C86001E00EE016E002
:101960002068016841F0010101602564202084F8AD
:101970003D00256384F83E50002070BD01EB410618
:10198000431EB3FBF6F35B1CB3E70120C2E701EB98
:101990004101401EB0FBF1F0401CC0F30B00B7E763
:1019A000A086010080841E0000093D0040420F0017
:1019B00010B586B000210091019102910391006859
:1019C0001349884222D1134CA06940F00800A0615D
:1019D000A069694600F0080004904FF44070009040
:1019E00012200190032003900B48FFF71DFE0B48C7
:1019F000416841F0E06141F002014160E06940F47A
:101A00000010E061E06900F40010049006B010BD21
:101A10000054004000100240000C01400000014052
:101A200002488168027811448160704704000020F8
:101A3000074810B5016841F010010160032000F073
:101A400075F80F2000F006F800F024F8002010BD13
:101A50000020024070B50D4D04464FF47A7128788D
:101A6000B1FBF0F00A490968B1FBF0F000F0DCFAD4
:101A700048B9102C07D200222146501E00F036F83B
:101A800000206C6070BD012070BD000004000020CB
:101A9000100000200C4808B5816941F00101816106
:101AA000816901F001010091C16941F08051C1617A
:101AB000C06900F0805000900448416821F0E06166
:101AC00041F08061416008BD00100240000001400B
:101AD000002809DB00F01F0201219140400980002D
:101AE00000F1E020C0F8001170470000F0B40E4B88
:101AF0001B680C46C3F30223C3F10705042D00D96C
:101B00000425191D072901D2002300E0DB1E012650
:101B100006FA05F1491E214099409E40761E164066
:101B20003143F0BC01F0E3BB0CED00E0064900F0EE
:101B3000070208684FF6FF03184040EA0220034AF4
:101B400010430860704700000CED00E00000FA054B
:101B50002DE9F0470F46050061D0434E306800F094
:101B60000700B84209D2306820F0070038433060DF
:101B7000306800F00700B84251D128683B4C81071B
:101B800012D5400703D5606840F4E06060602878B3
:101B9000000703D5606840F4605060606068A96821
:101BA00020F0F000084360602878C00728D06868FB
:101BB000012810D02168022810D0890700292EDAC8
:101BC000616821F0030101436160FFF727FE804651
:101BD00041F288390DE021688903EFE78901EDE7DB
:101BE000FFF71CFEA0EB0801494502D90320BDE820
:101BF000F0876068696800F00C00B0EB810FEFD1EE
:101C0000306800F00700B8420BD9306820F00700B8
:101C100038433060306800F00700B84201D001203E
:101C2000E5E72878400705D56068E96820F4E060BA
:101C3000084360602878000706D56068296920F4A9
:101C4000605040EAC100606000F038F86168084AFE
:101C5000C1F30311515CC84006490860064800689A
:101C6000FFF7F8FE0020C2E700200240001002400B
:101C7000EC38000810000020080000200448054946
:101C800000684968044AC1F30221515CC8407047AA
:101C90001000002000100240FC38000804480549EC
:101CA00000684968044AC1F3C221515CC8407047CA
:101CB0001000002000100240FC3800080E4A516855
:101CC0000E4801F00C03042B11D0082B0FD10C4847
:101CD000C1F38343C903C05C0AD55168084AC1F304
:101CE0004041921E515C054A5043B0FBF1F07047F1
:101CF00004494843704700000010024000127A0077
:101D0000DC38000800093D002DE9F84F040070D0D0
:101D10002078C04DC00749D06868C0F38100012811
:101D200007D06868C0F38100022809D16868C00341
:101D300006D52868800339D560680028E7D035E0EB
:101D40006068B0F5803F0BD010B1B0F5A02F11D076
:101D5000286820F480302860286820F4802002E081
:101D6000286840F480302860606890B1FFF756FD25
:101D700006460AE0286840F480202860F0E700BFAB
:101D8000FFF74CFD801B642873D828688003F7D5C3
:101D90000CE0FFF743FD064605E000BFFFF73EFD00
:101DA000801B6428F0D828688003F7D420789A4EE6
:101DB00080074FF001094FF0000839D5686810F02E
:101DC0000C0F07D06868C0F38100022809D1686849
:101DD000C00306D42868800714D52069012808D1DB
:101DE00010E02069B0B1C6F80090FFF717FD074674
:101DF00005E00AE1FFF712FDC01B0228C4D82868DD
:101E00008007F7D52868616920F0F80040EAC10032
:101E100028600DE0C6F80080FFF700FD074604E0EB
:101E2000FFF7FCFCC01B022823D828688007F7D4E2
:101E3000207800072CD57948A169D9B1C0F8009065
:101E4000FFF7ECFC074604E0FFF7E8FCC01B0228A4
:101E50000FD8686A8007F7D571484FF4FA510068C7
:101E6000B0FBF1F0009000BF0098411E0091FAD243
:101E70000EE080E0C0F80080FFF7D0FC074604E0E9
:101E8000FFF7CCFCC01B022875D8686A8007F7D41E
:101E90002078400760D5E8690027C00008D4E869C9
:101EA00040F08050E861E869012700F08050009020
:101EB0005C480168C90513D40168834641F4807108
:101EC0000160FFF7ABFC824606E000BFFFF7A6FC0F
:101ED000A0EB0A0064284ED8DBF80000C005F5D559
:101EE000E06801280AD008B1052813D0286A20F03C
:101EF00001002862286A20F0040002E0286A40F00D
:101F000001002862E06841F2883B98B1FFF786FC47
:101F100082460BE0286A40F004002862EEE700BF2A
:101F2000FFF77CFCA0EB0A0159455AD8286A8007C4
:101F3000F6D50CE0FFF772FC824605E0FFF76EFC79
:101F4000A0EB0A0159454CD8286A8007F6D41FB186
:101F5000E86920F08050E861E06988B36968C1F3FE
:101F60008101022944D00228C6F8608004D0FFF71E
:101F700055FC044638E034E0FFF750FC074604E027
:101F8000FFF74CFCC01B02282BD828688001F7D42F
:101F9000206AB0F5803F05D16868A16820F4003060
:101FA00008436860D4E908010843696821F47411A2
:101FB00008436860C6F86090FFF730FC044606E00E
:101FC00025E000BFFFF72AFC001B022809D828687B
:101FD0008001F7D51BE000BFFFF720FC001B0228A3
:101FE00002D90320BDE8F88F28688001F4D40EE000
:101FF0000128F7D06868226A00F48031914204D148
:10200000616A00F47010884201D00120EAE70020E4
:10201000E8E7000000100240000042428004424213
:10202000100000200070004010B5401EB0F1807F0D
:1020300001D3012010BD4FF0E02460610F21601733
:1020400001F055F90020A06107202061002010BD9B
:1020500070B590F83C20012A26D0012480F83C403D
:10206000022280F83D2003685A689D6822F07006BD
:102070000A6832435A600D4B02689A4208D0B2F1A6
:10208000804F05D00A4B9A4202D00A4B9A4204D1A3
:10209000496825F080031943916080F83D40002194
:1020A00080F83C10084670BD022070BD002C014035
:1020B000000400400008004010B5040003D094F86C
:1020C0003D0010B107E0012010BD002084F83C0065
:1020D000204600F01FF8022084F83D00211D2068F2
:1020E00000F082FE012084F8460084F83E0084F867
:1020F0003F0084F8400084F8410084F8420084F8EE
:10210000430084F8440084F8450084F83D00002032
:1021100010BD000008B5124A01681248914207D16B
:10212000816941F400618161806900F4006014E01C
:10213000B1F1804F0AD00C4A91420FD1C16941F0F0
:102140000201C161C06900F0020006E0C16941F00E
:102150000101C161C06900F00100009008BD0000EC
:10216000002C0140001002400004004090F83D1097
:10217000012901D001207047022180F83D1000683C
:102180000B49884208D0B0F1804F05D009498842F8
:1021900002D00949884204D1816801F0070106296B
:1021A00003D0016841F00101016000207047000088
:1021B000002C0140000400400008004001680A6A49
:1021C00041F211131A4207D10A6A9B101A4203D135
:1021D0000A6822F001020A60012180F83D10002007
:1021E000704770B5044690F83C000025012817D0D0
:1021F000012684F83C60022084F83D002068826853
:1022000022F0770222F47F4282600868502838D09A
:102210000DDC20284FD005DC90B3102811D14AE006
:10222000022070BD302846D040280AD13BE060280B
:102230002FD070280DD0B0F5805F03D0B0F5005FCF
:1022400012D0012584F83D60002084F83C00284627
:1022500070BDCB68D1E90121206800F00EFE206836
:10226000816841F0770109E0CB68D1E9012120685C
:1022700000F003FE2068816841F480418160E1E75D
:1022800019E0CA684968206800F0ACFE5021206857
:1022900006E0CA684968206800F0B5FE6021206841
:1022A00000F0F5FDCEE7CA684968206800F09AFEA4
:1022B00040212068F4E7226801461046F0E700005C
:1022C00010B586B00021009101910291039103683D
:1022D000114902221148B3F1804F13D0104CA34290
:1022E0000ED18B6943F004038B61896901F004010D
:1022F00004914021CDE9001269460392FFF794F959
:1023000006B010BD8B6943F004038B61896901F04D
:10231000040104910121EDE7001002400008014092
:102320000004004070B5044690F83C0000260D46BD
:1023300001280FD0012084F83C006AB1042A1DD086
:10234000082A2FD00C2A3FD00126002084F83C0018
:10235000304670BD022070BD206800F0A1FD2068ED
:10236000816941F0080181612068816921F00401DF
:102370008161206881692A69114311E0206800F0B9
:10238000B7FD2068816941F400618161206881693D
:1023900021F480618161206881692A6941EA022112
:1023A0008161D2E7206800F0CFFD2068C16941F06B
:1023B0000801C1612068C16921F00401C161206880
:1023C000C1692A69114311E0206800F0E9FD206825
:1023D000C16941F40061C1612068C16921F4806173
:1023E000C1612068C1692A6941EA0221C161ACE783
:1023F00010B5040003D094F83D0010B107E00120AF
:1024000010BD002084F83C00204600F01EF8022099
:1024100084F83D00211D206800F0E6FC012084F8CE
:10242000460084F83E0084F83F0084F8400084F8B9
:10243000410084F8420084F8430084F8440084F8A2
:10244000450084F83D00002010BD704710B50446DB
:10245000022249B104290ED0082913D094F8410072
:10246000012816D0012010BD94F83E000128F9D1B2
:1024700084F83E200FE094F83F000128F2D184F860
:102480003F2008E094F840000128EBD184F8402078
:1024900001E084F841200122206800F0E1FC0F49AE
:1024A0002068884203D1426C42F4004242642068B2
:1024B000884208D0B0F1804F05D00949884202D047
:1024C0000849884204D1816801F00701062903D038
:1024D000016841F001010160002010BD002C0140A5
:1024E000000400400008004070477047F8B50168DC
:1024F00004460868CA684B6910F00F0F4FF00005DA
:1025000059D003F0010602F49077374365D0C10734
:1025100005D0D10503D5616C41F00101616441072B
:1025200005D5D90703D0616C41F0020161648107D0
:1025300005D5D90703D0616C41F00401616401073E
:1025400007D502F02001314303D0616C41F008014E
:102550006164616C00293AD0800604D5900602D5EA
:10256000204600F091FD20684069616CC0F3801046
:10257000090700D460B3204600F05FFD2068406981
:10258000400621D52068143050E8001F21F040019A
:1025900040E80012002AF5D1E06BA8B16D49416313
:1025A000E06BFEF7E3FF002811D0E06B416B01B058
:1025B000BDE8F040084783060FD593060DD52046A9
:1025C000BDE8F84000F060BD2046FFF78EFFF8BD83
:1025D0002046FFF78AFF6564F8BD266B2023012E95
:1025E0007CD1C6067AD5D60678D5086848680090AA
:1025F00048694FF00206400640D5E16B0868406824
:102600000004000CE8D0A28D8242E5D9E0858869FB
:1026100020282DD020680C3050E8001F21F4807154
:1026200040E80012002AF5D12068143050E8001F5D
:1026300021F0010140E80012002AF5D12068143091
:1026400050E8001F21F0400140E80012002AF5D1B7
:1026500084F84230256320680C3050E8001F21F0D8
:10266000100140E80012002AF5D1E06BFEF75AFF96
:102670006663A08DE18D401A81B22AE0A08DE18DC4
:10268000401A81B2E08D0028A6D00029A4D022688B
:102690000C3252E8000F20F4907042E80007002F3F
:1026A000F5D12068143050E8002F22F0010240E8F4
:1026B0000027002FF5D184F84230256320680C30C4
:1026C00050E8002F22F0100240E80023002BF5D143
:1026D00066632046FFF708FFF8BDFFE705062BD528
:1026E000150629D594F841002128F5D1A068B0F548
:1026F000805F01D12069B0B1206A411C216221684C
:1027000000784860E08C401E0004000CE084E3D1B7
:102710002068C16821F08001C1602068C16841F073
:102720004001C160D8E7206A0088C0F30800486013
:10273000206A801C2062E5E74006CDD55006CBD547
:10274000CA68204622F04002CA6084F8413000F096
:102750004FF9C1E72B30000870B5040004D094F89D
:102760004100002510B106E0012070BD84F8405002
:10277000204600F023F8242084F841002068C16836
:1027800021F40051C160204600F0E0FC206801699E
:1027900021F4904101612068416921F02A014161E1
:1027A0002068C16841F40051C1606564202084F84C
:1027B000410084F842006563002070BD70B586B0AA
:1027C000002400940194029403942E4E03682E4931
:1027D000022003222D4DB34226D18B6943F480435E
:1027E0008B618B6903F4804304938B6943F004038A
:1027F0008B618969039201F0040104910102CDE922
:10280000001069462846FEF70FFF2815CDE90004A1
:10281000694628460294FEF707FF0022114625204C
:10282000FFF764F9252028E0194EB34227D1CB6980
:1028300043F40033CB61CB6903F4003304938B6919
:1028400043F004038B618969039201F00401049150
:102850000421CDE9001069462846FEF7E5FE082070
:10286000CDE90004694628460294FEF7DDFE002209
:1028700011462620FFF73AF92620FFF729F906B07E
:1028800070BD000000380140001002400008014007
:102890000044004090F84230202B01D002207047C5
:1028A00021B11AB10023036300F0ACBC01207047D2
:1028B00070B52449884244D1234C244A207848B139
:1028C000002501280CD0811E07290FD861781154EA
:1028D000401C15E06078A5282BD1107001200FE076
:1028E00060785A2824D15070022009E00A2802D0CA
:1028F0000B2807D01DE06078C32819D190720B20F7
:10290000207016E060783C2812D153889088D188D6
:102910001289012B04D0022B05D0042B06D007E02E
:1029200000F068F804E0FEF743FD01E000F018FA5B
:102930002570BDE8704004490122491C0148FFF799
:10294000A9BF70BD4C010020000000201400002031
:102950002DE9F843044690F84100984616460D4686
:10296000202802D00220BDE8F88385B17EB1002086
:102970006064212084F84100FEF750FFA684814660
:10298000E684A0682027B0F5805F02D003E0012034
:10299000E9E7206910B12E4600250EE000260CE084
:1029A0008021204600F049FCA8B9C6B116F8010BF9
:1029B00021684860E08C401EE084E08C4B464FF07C
:1029C0000002CDF800800028EAD14FF040012046F7
:1029D00000F033FC40B184F841700320C3E735F8C0
:1029E000020BC0F30800E3E784F841700020BAE767
:1029F0007047FEE7012806D002280DD003280AD12F
:102A000091B1012211E04FF47A70824200D902465E
:102A10000848006842637047012901D0012200E0A4
:102A200000220221044803E000224FF40041034841
:102A3000FEF7EFBEBC00002000080140001001407E
:102A40002DE9F04786B000242C48009401940294AC
:102A50000394816941F010018161816901F01001E5
:102A60000491816941F020018161816901F02001B7
:102A70000491816941F004018161816901F00401DF
:102A80000491816941F0080181618069DFF87080FB
:102A900000F008004FF4004504900022294640460B
:102AA000FEF7B7FEDFF85C90012202214846FEF7F0
:102AB000B0FEDFF854A06F11002239465046FEF7F1
:102AC000A8FE0126CDE90056022569464046CDE91B
:102AD0000245FEF7A9FDCDE9005669464846CDE915
:102AE0000245FEF7A1FDCDE9007669465046CDE9E5
:102AF0000245FEF799FD06B0BDE8F08700100240E0
:102B00000010014000080140000C01400D4810B5C4
:102B10000B4901600C49416000214FF48042816003
:102B2000C0E9031241618161C1610162FEF77CFE6F
:102B3000002803D0BDE81040FEF7F2BC10BD000035
:102B40000054004020000020A086010010B586B08F
:102B500000241748009401940294039404941349A8
:102B6000059401604721C0E901144FF6FF71C0E9E7
:102B7000031444618461FFF79FFA08B1FEF7D0FCAB
:102B80004FF48050009069460948FFF72AFB08B1CE
:102B9000FEF7C6FC049404A905480594FFF758FA0B
:102BA000002801D0FEF7BCFC06B010BD002C01408F
:102BB0007400002010B58EB0002407940894099486
:102BC0000A940B941C2168460C94FDF703FC1E48E4
:102BD0004FF0804101604721C0E9011440F2E73124
:102BE000C0E903148461FFF767FA08B1FEF798FCA7
:102BF0004FF48050079007A91348FFF7F2FA08B185
:102C0000FEF78EFC1048FFF7F3FB08B1FEF788FCD7
:102C10000B940BA90C480C94FFF71AFA08B1FEF7B5
:102C20007FFC6020CDE9000402940022694606483A
:102C30000494FFF777FB08B1FEF772FC0248FFF738
:102C40003FFB0EB010BD0000BC00002010B58EB0E0
:102C500000240794089409940A940B941C21684654
:102C60000C94FDF7B7FB1F481D49016040F2CF21CE
:102C7000C0E9011440F2CF71C0E903148461FFF789
:102C80001BFA08B1FEF74CFC4FF48050079007A9DF
:102C90001448FFF7A6FA08B1FEF742FC1148FFF707
:102CA000A7FB08B1FEF73CFC0B940BA90D480C9454
:102CB000FFF7CEF908B1FEF733FC6020CDE9000440
:102CC00002940022694607480494FFF72BFB08B1E1
:102CD000FEF726FC0348FFF7F3FA0EB010BD000024
:102CE00000040040040100200C4810B50A490160AE
:102CF0004FF4E1314160002181600C22C160C0E9E4
:102D000004128161C161FFF727FD002803D0BDE8EF
:102D10001040FEF705BC10BD003801404C010020FA
:102D20000C4810B50A4901604FF4E13141600021BF
:102D300081600C22C160C0E904128161C161FFF7AA
:102D40000BFD002803D0BDE81040FEF7E9BB10BD25
:102D50000044004094010020FEE7FEE77047704702
:102D600001280CD1B42A00D9B422BE204243B42099
:102D7000B2FBF0F00249323080B209684863704714
:102D800004010020FEF74CBE30B58FB02821684604
:102D9000FDF720FB14210AA8FDF71CFB0121080404
:102DA000CDE900100024029402250491CDE90750DA
:102DB0004FF4E01009906846FEF7A6FF08B172B61E
:102DC000FEE70F20CDE90A054FF48060CDE90C4005
:102DD00002210AA80E94FEF7BBFE002801D072B6AD
:102DE000FEE70FB030BD7047F0B50268194B1A4CC2
:102DF0001A4D4FF08047984205D0B84203D0A04208
:102E000001D0A84203D122F070064A6832439842AA
:102E100005D0B84203D0A04201D0A84203D122F489
:102E20004074CA6822434C6922F080022243026047
:102E30008A68C2620A688262984201D109690163A4
:102E4000012141610169C90703D0016921F0010134
:102E50000161F0BD002C014000040040000800406A
:102E600010B501F01F030121046A99408C430462EC
:102E7000016A9A401143016210BD10B5846842EAAC
:102E8000032224F47F440A432243826010BD8268F7
:102E900022F070020A4342F007018160704700008F
:102EA00030B5036A026A22F0010202624268846954
:102EB00024F073050C682C4323F002058B682B4328
:102EC0000A4DA8420BD123F00805CB6822F44072CA
:102ED0002B434D6923F0040315438A692A4342605A
:102EE000846149684163036230BD0000002C0140E9
:102EF00030B5026A036A23F01003036243688469F1
:102F00000D6824F4E64444EA05248D6822F020028A
:102F100042EA05120B4DA8420ED1CD6822F0800284
:102F200042EA05124D6923F4406343EA85038D6943
:102F300022F0400243EA850343608461496881636B
:102F4000026230BD002C014030B5036A026A22F4EF
:102F5000807202624268C46923F4007324F073052E
:102F60000C682C438D6843EA05230C4DA8420ED112
:102F7000CD6823F4006343EA05234D6922F44052EF
:102F800042EA05128D6923F4806342EA0512426029
:102F9000C4614968C163036230BD0000002C014078
:102FA00030B5046A026A22F4805202624268C36940
:102FB0000D6823F4E64343EA05238D6824F40054A6
:102FC00044EA0534064DA84204D14D6922F48042FA
:102FD00042EA85124260C36149680164046230BDFF
:102FE000002C014010B5036A046A24F00104046255
:102FF000846924F0F00444EA021423F00A020A432C
:103000008461026210BD10B5036A046A24F01004E2
:103010000462846923F0A00324F4704444EA023279
:1030200043EA01118261016210BD10B5406A0021BE
:10303000C185C184FFF759FA10BD01680C3151E810
:10304000002F22F4907241E80023002BF5D1016893
:10305000143151E8002F22F0010241E80023002B37
:10306000F5D1016B012909D101680C3151E8002F1C
:1030700022F0100241E80023002BF5D1202180F836
:10308000421000210163704708B590F842102229D0
:1030900001D0022008BD82684FF480539A4201D1CA
:1030A000016921B1816A9A421BD04AB10AE00268E3
:1030B000816A5268C2F308020A80816A891C08E0AA
:1030C000026972B10268526802F07F020A70816A76
:1030D000491C8162C18D491E0904090CC18503D0B8
:1030E0001BE002685268F1E70168CA6822F020021A
:1030F000CA600168CA6822F48072CA6001684A69BD
:1031000022F001024A61202180F84210002141632F
:10311000026B012A03D0FFF7CBFB002008BD01633F
:1031200001680C3151E8002F22F0100241E8002321
:10313000002BF5D101680A68D20602D50A684968F1
:103140000091818DFFF7D0F9E7E7000070B50446E4
:1031500000680169E26821F440511143016121696D
:10316000A0680843616908432168CA6841F20C639A
:103170009A430243CA6020684169A26921F4407100
:10318000114341611E492068884202D1FEF786FD45
:1031900001E0FEF773FD00EBC00101EB0012606877
:1031A00064218000B2FBF0F3B3FBF1F36FF018067B
:1031B0007343B2FBF0F5B2FBF0F605EB8305322367
:1031C00003EB0515B5FBF1F5B6FBF1F605F0F005DF
:1031D00005EB0615B2FBF0F6B2FBF0F0B0FBF1F038
:1031E0006FF01802504306EB800003EB0010B0FBB9
:1031F000F1F0216800F00F002844886070BD0000E5
:103200000038014081628285C2850021416422210B
:1032100080F84210016921B10168CA6842F48072E5
:10322000CA6001684A6942F001024A610068C168E7
:1032300041F02001C160002070472DE9F843984615
:1032400017460D460446089E24E0701C22D0FEF767
:10325000E5FAA0EB0800B0421AD8CEB12068C168E8
:10326000490717D5802D15D0402D13D00168C943CB
:1032700009070FD401680025406800902046FFF739
:10328000DCFE0820606484F840500120BDE8F8832B
:103290000320FBE72068006835EA000004D0002026
:1032A000B842D2D00020F1E70120F9E70148FFF74A
:1032B0001DB900004C0100200148FFF717B90000BC
:1032C00094010020FEE7490050EAC12018BF042005
:1032D0004A0D18BF40F0010040F2FF72B2EB515F9F
:1032E00008BF40F00200012808BF05207047090709
:1032F000090E002804DB00F1E02080F8001470477C
:1033000000F00F0000F1E02080F8141D7047303805
:103310000A2801D201207047002070479CB0FEF7B8
:1033200087FBFFF731FDFFF78BFBFFF7EFFBFFF7A5
:1033300041FCFFF7D9FCFFF7F3FCFFF787FCFFF731
:1033400005FC00212F48FFF781F800212E48FFF7E8
:103350007DF801222D492E48FFF79CFA4FF47A742C
:103360002046FEF74FF92B4EDFF8AC804FF4806516
:1033700040F2DC571BA91AA8FEF72CF8A0B91A983E
:1033800000F086F89DF86C20009202460B4623A1BF
:1033900001A8FCF729FF01A8FCF7FDFF82B2234634
:1033A00001A91B48FFF7D4FA29463046FEF72CFA4C
:1033B000012823D01EA101A8FCF716FF01A8FCF7E5
:1033C000EAFF82B2234601A91148FFF7C1FA0221A0
:1033D0004046FEF719FA012812D018A101A8FCF7FF
:1033E00003FF01A8FCF7D7FF82B2234601A90848D2
:1033F000FFF7AEFA3846FEF705F9BBE711A1DAE7A9
:1034000013A1EBE704010020BC0000200100002014
:103410004C010020000C0140000801404448543198
:10342000315F313A252E31665F25750A00000000B4
:1034300042454550313A300A000000004C454432C4
:103440003A310A0042454550313A310A0000000045
:103450004C4544323A300A0010B500290AD00878A9
:10346000002807D005487844FDF792FB002801D0DA
:10347000002010BD0248784410BD00005205000035
:103480004A0500000808A0F500114FEA3101704715
:1034900043004FEAD30C4FEA3C0C43401FBF4007A8
:1034A0000CF1605113F0FE4F70471CF0006F03D118
:1034B00000200CF0004170470CF0004343EA5070CC
:1034C00010B540EACC0000F046F900BF00000092C1
:1034D0004FEA0001FFF7D6BF4FF000414FF0000068
:1034E000A1F500217047000090EA010F48BF81F06C
:1034F000004100F18281421A3CBF801A89184FEACC
:10350000D0524FF07F4C1CEA410FA2EBD15318BFB1
:103510009CEA026F00F03B804FF0004C4CEA002028
:103520004CEA012121FA03FC10EB0C0C1ED202F133
:10353000FF325FEA1C2040EBC25038BF70471CF0DE
:103540007F0F4FEA400C18BFBCF17F4F38BF704768
:10355000C3F12003994008BF20F00100BCF17F4F68
:1035600038BF7047A0F1C04000F03BB94FEA3C00C3
:10357000000A40EBC25028BF1CF0FF0F4FEA400C7E
:10358000E6D018BFBCF17F4F38BF7047EAE79CEA2E
:10359000026F05D010EA5C0F08BF00F000407047D2
:1035A00010B500F0D8F800BF64FBBE3E4FF47F0CAE
:1035B0001CEAD0121EBF1CEAD11392EA0C0F93EA48
:1035C0000C0F00F0858090EA010F48BF42F4807232
:1035D00040F4000C41F400002CF07F4120F07F40CB
:1035E00000B58142A2EB03020FF2081CACEB504E77
:1035F000C0F100009EF800E04FEA4E0E00FB0EFC0A
:1036000038BF49004FEA2C1C02F5FA020CFB0EF3FE
:103610004FEACE1E4FEA112C4FEAC1210EEB635E3A
:1036200042EB22420EFB0CFC4FEA1C5300FB031141
:103630004FEA112C4FEA01310EFB0CFC4FEADC4C37
:1036400000FB0C11C14228BF09184CEB03335DF895
:1036500004EB10EB410143EBC250B2F57C0F38BFD5
:10366000704729D512F0F00F1CBF00F1C04000F0E8
:1036700000407047008182838485868788898B8C8F
:103680008D8E8F919293959697999A9C9D9FA0A2CB
:10369000A3A5A7A8AAACAEB0B2B3B5B7B9BCBEC01B
:1036A000C2C5C7C9CCCED1D4D7D9DCDFE2E6E9ECBC
:1036B000F0F3F7FAFE0000004FEA400C0CF1807CBA
:1036C000BCF17E4F28BF7047B0F1C04000F089B810
:1036D00090EA010F0CEAD11348BF42F480726245B0
:1036E00038BF634507D213F47F0F16D080EA01007C
:1036F00000F00040704710B500F02DF8097EFC3E48
:1037000000F005B880EA010000F00040704780EA50
:10371000010000F0004000F064B812F47F0F04BF15
:103720000248704780EA010000F05BB80000C07FEB
:10373000B0FA80F310FA03F2C3F19D030AD0D90561
:1037400001EB1220530638BF704700F1010008BF9B
:1037500020F0010070470EF1020E2EF0030E5EF80D
:10376000044B244204D44FEA4102B2F17F4F11D8F6
:103770004FEA4003B3F17F4F0CD80ED14FEAD07C13
:10378000B2F17F4F0CEB4C0C0CF1020C08BF4CEB70
:10379000D17C04E04FF0080C01E04FEAD17C0CEB47
:1037A0004C0324FA03F404F00704B4F1040C06D229
:1037B0000EEB840CBDE810404CF0010C6047DFE8D4
:1037C0000CF0070802024FF00040A0F5800010BD89
:1037D0000846420018BFD2F1807288BF00F0004056
:1037E00010BDFF2141EAD050C005704790EA010F9B
:1037F00048BF81F000413FF57EAE421A04D882F006
:103800000042A0EB020011444FEAD0524FF07F4C2F
:103810001CEA410FA2EBD15318BF9CEA026F4AD0B9
:103820004FF0004C4CEA00204CEA012121FA03FC45
:10383000B0EB0C0C0FD412F0FE0F36D05FEA4C0048
:103840001DD5001240EBC25038BF70471CF03F0F2F
:1038500018BF70470BE0A2F101025FEA1C2040EBA9
:10386000C25038BF70471CF07F0F18BF7047C3F1BC
:103870002003994014BF401E20F0010070478008CB
:103880004FEA122308BF7047B0FA80FCA2EB0C028B
:10389000CCF1280C60FA0CF093EA122F04BF00EB75
:1038A000C25070474FEAC3707047130A5FEADC10DA
:1038B00008BF7047F6E79CEA026F04D010EA5C0F7D
:1038C00008BF0020704710B5FFF745FF40DFF63E08
:1038D00081F000407047FCF7D9BE010202030405E5
:1038E000060708090A0B0C0D0E0F1010000000004F
:1038F00000000000010203040607080900000000A0
:103900000102030402400000000000A000000000CB
:1039100005400000000000C8000000000C4000004E
:103920000000409C00000000194000000020BCBEC8
:103930000000000034400000BFC91B8E00000004DE
:10394000B5400000504BCFD06607E2CF0100000029
:103950006C4100003E8251AADFEEA7340100000056
:10396000D9420000DCB5A0E23A301F97FFFFFFFF0D
:10397000B4450000FD25A0C8E9A3C14FFFFFFFFF2C
:10398000FF3F00000000008000000000FF3F00003B
:103990000000008000000000D43900080000002072
:1039A0001400000028010008E83900081400002075
:1039B0002C080000440100081C0000004300000027
:1039C000F8FFFFFF0C0000000E0000000F000000D9
:1039D0002E000000000000000100000010000000A8
:0839E0000000000000127A0053
:04000005080000ED02
:00000001FF
